{
  "_format": "hh-sol-artifact-1",
  "contractName": "Auction",
  "sourceName": "contracts/Auction.sol",
  "abi": [
    {
      "inputs": [
        {
          "internalType": "address",
          "name": "",
          "type": "address"
        }
      ],
      "name": "bidders",
      "outputs": [
        {
          "internalType": "uint256",
          "name": "",
          "type": "uint256"
        }
      ],
      "stateMutability": "view",
      "type": "function"
    },
    {
      "inputs": [],
      "name": "make_bid",
      "outputs": [],
      "stateMutability": "payable",
      "type": "function"
    },
    {
      "inputs": [
        {
          "internalType": "address",
          "name": "to",
          "type": "address"
        }
      ],
      "name": "return_money",
      "outputs": [],
      "stateMutability": "payable",
      "type": "function"
    }
  ],
  "bytecode": "0x608060405234801561001057600080fd5b506101bd806100206000396000f3fe6080604052600436106100345760003560e01c80630b0e7c661461003957806399e2c7e61461004e578063fcc8f79314610056575b600080fd5b61004c61004736600461012c565b61008c565b005b61004c6100e7565b34801561006257600080fd5b5061007661007136600461012c565b61011a565b604051610083919061015a565b60405180910390f35b6001600160a01b03811660008181526020819052604080822054905181156108fc0292818181858888f193505050501580156100cc573d6000803e3d6000fd5b506001600160a01b0316600090815260208190526040812055565b600034116100f457600080fd5b3360009081526020819052604081208054349290610113908490610163565b9091555050565b60006020819052908152604090205481565b60006020828403121561013d578081fd5b81356001600160a01b0381168114610153578182fd5b9392505050565b90815260200190565b6000821982111561018257634e487b7160e01b81526011600452602481fd5b50019056fea26469706673582212204b1900614229ff0ae1b6e9382132994d56e5609fef8b349ae6e38835a70422a464736f6c63430008000033",
  "linkReferences": {},
  "deployedLinkReferences": {}
}