{
  "_format": "hh-sol-artifact-1",
  "contractName": "ERC721",
  "sourceName": "contracts/GameItem.sol",
  "abi": [
    {
      "inputs": [
        {
          "internalType": "string",
          "name": "name_",
          "type": "string"
        },
        {
          "internalType": "string",
          "name": "symbol_",
          "type": "string"
        }
      ],
      "stateMutability": "nonpayable",
      "type": "constructor"
    },
    {
      "anonymous": false,
      "inputs": [
        {
          "indexed": true,
          "internalType": "address",
          "name": "owner",
          "type": "address"
        },
        {
          "indexed": true,
          "internalType": "address",
          "name": "approved",
          "type": "address"
        },
        {
          "indexed": true,
          "internalType": "uint256",
          "name": "tokenId",
          "type": "uint256"
        }
      ],
      "name": "Approval",
      "type": "event"
    },
    {
      "anonymous": false,
      "inputs": [
        {
          "indexed": true,
          "internalType": "address",
          "name": "owner",
          "type": "address"
        },
        {
          "indexed": true,
          "internalType": "address",
          "name": "operator",
          "type": "address"
        },
        {
          "indexed": false,
          "internalType": "bool",
          "name": "approved",
          "type": "bool"
        }
      ],
      "name": "ApprovalForAll",
      "type": "event"
    },
    {
      "anonymous": false,
      "inputs": [
        {
          "indexed": true,
          "internalType": "address",
          "name": "from",
          "type": "address"
        },
        {
          "indexed": true,
          "internalType": "address",
          "name": "to",
          "type": "address"
        },
        {
          "indexed": true,
          "internalType": "uint256",
          "name": "tokenId",
          "type": "uint256"
        }
      ],
      "name": "Transfer",
      "type": "event"
    },
    {
      "inputs": [
        {
          "internalType": "address",
          "name": "_owner",
          "type": "address"
        }
      ],
      "name": "_showTokenID",
      "outputs": [
        {
          "internalType": "uint256",
          "name": "",
          "type": "uint256"
        }
      ],
      "stateMutability": "view",
      "type": "function"
    },
    {
      "inputs": [
        {
          "internalType": "address",
          "name": "",
          "type": "address"
        }
      ],
      "name": "_tokenids",
      "outputs": [
        {
          "internalType": "uint256",
          "name": "",
          "type": "uint256"
        }
      ],
      "stateMutability": "view",
      "type": "function"
    },
    {
      "inputs": [
        {
          "internalType": "address",
          "name": "to",
          "type": "address"
        },
        {
          "internalType": "uint256",
          "name": "tokenId",
          "type": "uint256"
        }
      ],
      "name": "approve",
      "outputs": [],
      "stateMutability": "nonpayable",
      "type": "function"
    },
    {
      "inputs": [
        {
          "internalType": "address",
          "name": "owner",
          "type": "address"
        }
      ],
      "name": "balanceOf",
      "outputs": [
        {
          "internalType": "uint256",
          "name": "",
          "type": "uint256"
        }
      ],
      "stateMutability": "view",
      "type": "function"
    },
    {
      "inputs": [
        {
          "internalType": "uint256",
          "name": "tokenId",
          "type": "uint256"
        }
      ],
      "name": "getApproved",
      "outputs": [
        {
          "internalType": "address",
          "name": "",
          "type": "address"
        }
      ],
      "stateMutability": "view",
      "type": "function"
    },
    {
      "inputs": [
        {
          "internalType": "address",
          "name": "owner",
          "type": "address"
        },
        {
          "internalType": "address",
          "name": "operator",
          "type": "address"
        }
      ],
      "name": "isApprovedForAll",
      "outputs": [
        {
          "internalType": "bool",
          "name": "",
          "type": "bool"
        }
      ],
      "stateMutability": "view",
      "type": "function"
    },
    {
      "inputs": [],
      "name": "name",
      "outputs": [
        {
          "internalType": "string",
          "name": "",
          "type": "string"
        }
      ],
      "stateMutability": "view",
      "type": "function"
    },
    {
      "inputs": [
        {
          "internalType": "uint256",
          "name": "tokenId",
          "type": "uint256"
        }
      ],
      "name": "ownerOf",
      "outputs": [
        {
          "internalType": "address",
          "name": "",
          "type": "address"
        }
      ],
      "stateMutability": "view",
      "type": "function"
    },
    {
      "inputs": [
        {
          "internalType": "address",
          "name": "from",
          "type": "address"
        },
        {
          "internalType": "address",
          "name": "to",
          "type": "address"
        },
        {
          "internalType": "uint256",
          "name": "tokenId",
          "type": "uint256"
        }
      ],
      "name": "safeTransferFrom",
      "outputs": [],
      "stateMutability": "nonpayable",
      "type": "function"
    },
    {
      "inputs": [
        {
          "internalType": "address",
          "name": "from",
          "type": "address"
        },
        {
          "internalType": "address",
          "name": "to",
          "type": "address"
        },
        {
          "internalType": "uint256",
          "name": "tokenId",
          "type": "uint256"
        },
        {
          "internalType": "bytes",
          "name": "data",
          "type": "bytes"
        }
      ],
      "name": "safeTransferFrom",
      "outputs": [],
      "stateMutability": "nonpayable",
      "type": "function"
    },
    {
      "inputs": [
        {
          "internalType": "address",
          "name": "operator",
          "type": "address"
        },
        {
          "internalType": "bool",
          "name": "approved",
          "type": "bool"
        }
      ],
      "name": "setApprovalForAll",
      "outputs": [],
      "stateMutability": "nonpayable",
      "type": "function"
    },
    {
      "inputs": [
        {
          "internalType": "bytes4",
          "name": "interfaceId",
          "type": "bytes4"
        }
      ],
      "name": "supportsInterface",
      "outputs": [
        {
          "internalType": "bool",
          "name": "",
          "type": "bool"
        }
      ],
      "stateMutability": "view",
      "type": "function"
    },
    {
      "inputs": [],
      "name": "symbol",
      "outputs": [
        {
          "internalType": "string",
          "name": "",
          "type": "string"
        }
      ],
      "stateMutability": "view",
      "type": "function"
    },
    {
      "inputs": [
        {
          "internalType": "uint256",
          "name": "tokenId",
          "type": "uint256"
        }
      ],
      "name": "tokenURI",
      "outputs": [
        {
          "internalType": "string",
          "name": "",
          "type": "string"
        }
      ],
      "stateMutability": "view",
      "type": "function"
    },
    {
      "inputs": [
        {
          "internalType": "address",
          "name": "from",
          "type": "address"
        },
        {
          "internalType": "address",
          "name": "to",
          "type": "address"
        },
        {
          "internalType": "uint256",
          "name": "tokenId",
          "type": "uint256"
        }
      ],
      "name": "transferFrom",
      "outputs": [],
      "stateMutability": "nonpayable",
      "type": "function"
    }
  ],
  "bytecode": "0x60806040523480156200001157600080fd5b50604051620013cd380380620013cd8339810160408190526200003491620001b9565b81516200004990600090602085019062000068565b5080516200005f90600190602084019062000068565b50505062000273565b828054620000769062000220565b90600052602060002090601f0160209004810192826200009a5760008555620000e5565b82601f10620000b557805160ff1916838001178555620000e5565b82800160010185558215620000e5579182015b82811115620000e5578251825591602001919060010190620000c8565b50620000f3929150620000f7565b5090565b5b80821115620000f35760008155600101620000f8565b600082601f8301126200011f578081fd5b81516001600160401b03808211156200013c576200013c6200025d565b6040516020601f8401601f19168201810183811183821017156200016457620001646200025d565b60405283825285840181018710156200017b578485fd5b8492505b838310156200019e57858301810151828401820152918201916200017f565b83831115620001af57848185840101525b5095945050505050565b60008060408385031215620001cc578182fd5b82516001600160401b0380821115620001e3578384fd5b620001f1868387016200010e565b9350602085015191508082111562000207578283fd5b5062000216858286016200010e565b9150509250929050565b6002810460018216806200023557607f821691505b602082108114156200025757634e487b7160e01b600052602260045260246000fd5b50919050565b634e487b7160e01b600052604160045260246000fd5b61114a80620002836000396000f3fe608060405234801561001057600080fd5b50600436106100f55760003560e01c80636c43797211610097578063a22cb46511610066578063a22cb465146101f4578063b88d4fde14610207578063c87b56dd1461021a578063e985e9c51461022d576100f5565b80636c437972146101a657806370a08231146101c657806395d89b41146101d957806396367804146101e1576100f5565b8063095ea7b3116100d3578063095ea7b31461015857806323b872dd1461016d57806342842e0e146101805780636352211e14610193576100f5565b806301ffc9a7146100fa57806306fdde0314610123578063081812fc14610138575b600080fd5b61010d610108366004610cd6565b610240565b60405161011a9190610dd2565b60405180910390f35b61012b610288565b60405161011a9190610ddd565b61014b610146366004610d0e565b61031a565b60405161011a9190610d81565b61016b610166366004610cad565b610341565b005b61016b61017b366004610b6c565b610398565b61016b61018e366004610b6c565b6103d0565b61014b6101a1366004610d0e565b6103eb565b6101b96101b4366004610b20565b610420565b60405161011a9190610fda565b6101b96101d4366004610b20565b61043b565b61012b61047f565b6101b96101ef366004610b20565b61048e565b61016b610202366004610c73565b6104a0565b61016b610215366004610ba7565b6104b6565b61012b610228366004610d0e565b6104f5565b61010d61023b366004610b3a565b61055c565b60006001600160e01b031982166380ac58cd60e01b148061027157506001600160e01b03198216635b5e139f60e01b145b8061028057506102808261058a565b90505b919050565b60606000805461029790611052565b80601f01602080910402602001604051908101604052809291908181526020018280546102c390611052565b80156103105780601f106102e557610100808354040283529160200191610310565b820191906000526020600020905b8154815290600101906020018083116102f357829003601f168201915b5050505050905090565b6000610325826105a3565b506000908152600460205260409020546001600160a01b031690565b600061034c826103eb565b9050806001600160a01b0316836001600160a01b031614156103895760405162461bcd60e51b815260040161038090610f4b565b60405180910390fd5b61039383836105cb565b505050565b6103a96103a3610639565b8261063d565b6103c55760405162461bcd60e51b815260040161038090610f8c565b61039383838361069c565b610393838383604051806020016040528060008152506104b6565b6000818152600260205260408120546001600160a01b0316806102805760405162461bcd60e51b815260040161038090610f14565b6001600160a01b031660009081526006602052604090205490565b60006001600160a01b0382166104635760405162461bcd60e51b815260040161038090610ecb565b506001600160a01b031660009081526003602052604090205490565b60606001805461029790611052565b60066020526000908152604090205481565b6104b26104ab610639565b83836107cf565b5050565b6104c76104c1610639565b8361063d565b6104e35760405162461bcd60e51b815260040161038090610f8c565b6104ef84848484610840565b50505050565b6060610500826105a3565b600061050a610873565b9050600081511161052a5760405180602001604052806000815250610555565b8061053484610885565b604051602001610545929190610d52565b6040516020818303038152906040525b9392505050565b6001600160a01b03918216600090815260056020908152604080832093909416825291909152205460ff1690565b6001600160e01b031981166301ffc9a760e01b14919050565b6105ac816109a0565b6105c85760405162461bcd60e51b815260040161038090610f14565b50565b600081815260046020526040902080546001600160a01b0319166001600160a01b0384169081179091558190610600826103eb565b6001600160a01b03167f8c5be1e5ebec7d5bd14f71427d1e84f3dd0314c0f7b2291e5b200ac8c7c3b92560405160405180910390a45050565b3390565b600080610649836103eb565b9050806001600160a01b0316846001600160a01b031614806106705750610670818561055c565b806106945750836001600160a01b03166106898461031a565b6001600160a01b0316145b949350505050565b826001600160a01b03166106af826103eb565b6001600160a01b0316146106d55760405162461bcd60e51b815260040161038090610e42565b6001600160a01b0382166106fb5760405162461bcd60e51b815260040161038090610e87565b610706838383610393565b6107116000826105cb565b6001600160a01b038316600090815260036020526040812080546001929061073a90849061100f565b90915550506001600160a01b0382166000908152600360205260408120805460019290610768908490610fe3565b909155505060008181526002602052604080822080546001600160a01b0319166001600160a01b0386811691821790925591518493918716917fddf252ad1be2c89b69c2b068fc378daa952ba7f163c4a11628f55a4df523b3ef91a4610393838383610393565b6001600160a01b0383811660008181526005602090815260408083209487168084529490915290819020805460ff1916851515179055517f17307eab39ab6107e8899845ad3d59bd9653f200f220920489ca2b5937696c3190610833908590610dd2565b60405180910390a3505050565b61084b84848461069c565b610857848484846109bd565b6104ef5760405162461bcd60e51b815260040161038090610df0565b60408051602081019091526000815290565b6060816108aa57506040805180820190915260018152600360fc1b6020820152610283565b8160005b81156108d457806108be8161108d565b91506108cd9050600a83610ffb565b91506108ae565b60008167ffffffffffffffff8111156108fd57634e487b7160e01b600052604160045260246000fd5b6040519080825280601f01601f191660200182016040528015610927576020820181803683370190505b5090505b84156106945761093c60018361100f565b9150610949600a866110a8565b610954906030610fe3565b60f81b81838151811061097757634e487b7160e01b600052603260045260246000fd5b60200101906001600160f81b031916908160001a905350610999600a86610ffb565b945061092b565b6000908152600260205260409020546001600160a01b0316151590565b60006109d1846001600160a01b0316610ad8565b15610acd57836001600160a01b031663150b7a026109ed610639565b8786866040518563ffffffff1660e01b8152600401610a0f9493929190610d95565b602060405180830381600087803b158015610a2957600080fd5b505af1925050508015610a59575060408051601f3d908101601f19168201909252610a5691810190610cf2565b60015b610ab3573d808015610a87576040519150601f19603f3d011682016040523d82523d6000602084013e610a8c565b606091505b508051610aab5760405162461bcd60e51b815260040161038090610df0565b805181602001fd5b6001600160e01b031916630a85bd0160e11b149050610694565b506001949350505050565b600080826001600160a01b0316803b806020016040519081016040528181526000908060200190933c511192915050565b80356001600160a01b038116811461028357600080fd5b600060208284031215610b31578081fd5b61055582610b09565b60008060408385031215610b4c578081fd5b610b5583610b09565b9150610b6360208401610b09565b90509250929050565b600080600060608486031215610b80578081fd5b610b8984610b09565b9250610b9760208501610b09565b9150604084013590509250925092565b60008060008060808587031215610bbc578081fd5b610bc585610b09565b93506020610bd4818701610b09565b935060408601359250606086013567ffffffffffffffff80821115610bf7578384fd5b818801915088601f830112610c0a578384fd5b813581811115610c1c57610c1c6110e8565b604051601f8201601f1916810185018381118282101715610c3f57610c3f6110e8565b60405281815283820185018b1015610c55578586fd5b81858501868301379081019093019390935250939692955090935050565b60008060408385031215610c85578182fd5b610c8e83610b09565b915060208301358015158114610ca2578182fd5b809150509250929050565b60008060408385031215610cbf578182fd5b610cc883610b09565b946020939093013593505050565b600060208284031215610ce7578081fd5b8135610555816110fe565b600060208284031215610d03578081fd5b8151610555816110fe565b600060208284031215610d1f578081fd5b5035919050565b60008151808452610d3e816020860160208601611026565b601f01601f19169290920160200192915050565b60008351610d64818460208801611026565b835190830190610d78818360208801611026565b01949350505050565b6001600160a01b0391909116815260200190565b6001600160a01b0385811682528416602082015260408101839052608060608201819052600090610dc890830184610d26565b9695505050505050565b901515815260200190565b6000602082526105556020830184610d26565b60208082526032908201527f4552433732313a207472616e7366657220746f206e6f6e20455243373231526560408201527131b2b4bb32b91034b6b83632b6b2b73a32b960711b606082015260800190565b60208082526025908201527f4552433732313a207472616e736665722066726f6d20696e636f72726563742060408201526437bbb732b960d91b606082015260800190565b60208082526024908201527f4552433732313a207472616e7366657220746f20746865207a65726f206164646040820152637265737360e01b606082015260800190565b60208082526029908201527f4552433732313a2061646472657373207a65726f206973206e6f7420612076616040820152683634b21037bbb732b960b91b606082015260800190565b60208082526018908201527f4552433732313a20696e76616c696420746f6b656e2049440000000000000000604082015260600190565b60208082526021908201527f4552433732313a20617070726f76616c20746f2063757272656e74206f776e656040820152603960f91b606082015260800190565b6020808252602e908201527f4552433732313a2063616c6c6572206973206e6f7420746f6b656e206f776e6560408201526d1c881b9bdc88185c1c1c9bdd995960921b606082015260800190565b90815260200190565b60008219821115610ff657610ff66110bc565b500190565b60008261100a5761100a6110d2565b500490565b600082821015611021576110216110bc565b500390565b60005b83811015611041578181015183820152602001611029565b838111156104ef5750506000910152565b60028104600182168061106657607f821691505b6020821081141561108757634e487b7160e01b600052602260045260246000fd5b50919050565b60006000198214156110a1576110a16110bc565b5060010190565b6000826110b7576110b76110d2565b500690565b634e487b7160e01b600052601160045260246000fd5b634e487b7160e01b600052601260045260246000fd5b634e487b7160e01b600052604160045260246000fd5b6001600160e01b0319811681146105c857600080fdfea264697066735822122056e8232401d691fb8ac2a09689b5bc542c032ebb2aa1665ce3fc2326a6247e1b64736f6c63430008000033",
  "linkReferences": {},
  "deployedLinkReferences": {}
}