{
  "_format": "hh-sol-artifact-1",
  "contractName": "GameItem",
  "sourceName": "contracts/GameItem.sol",
  "abi": [
    {
      "inputs": [],
      "stateMutability": "nonpayable",
      "type": "constructor"
    },
    {
      "anonymous": false,
      "inputs": [
        {
          "indexed": true,
          "internalType": "address",
          "name": "owner",
          "type": "address"
        },
        {
          "indexed": true,
          "internalType": "address",
          "name": "approved",
          "type": "address"
        },
        {
          "indexed": true,
          "internalType": "uint256",
          "name": "tokenId",
          "type": "uint256"
        }
      ],
      "name": "Approval",
      "type": "event"
    },
    {
      "anonymous": false,
      "inputs": [
        {
          "indexed": true,
          "internalType": "address",
          "name": "owner",
          "type": "address"
        },
        {
          "indexed": true,
          "internalType": "address",
          "name": "operator",
          "type": "address"
        },
        {
          "indexed": false,
          "internalType": "bool",
          "name": "approved",
          "type": "bool"
        }
      ],
      "name": "ApprovalForAll",
      "type": "event"
    },
    {
      "anonymous": false,
      "inputs": [
        {
          "indexed": true,
          "internalType": "address",
          "name": "from",
          "type": "address"
        },
        {
          "indexed": true,
          "internalType": "address",
          "name": "to",
          "type": "address"
        },
        {
          "indexed": true,
          "internalType": "uint256",
          "name": "tokenId",
          "type": "uint256"
        }
      ],
      "name": "Transfer",
      "type": "event"
    },
    {
      "inputs": [
        {
          "internalType": "address",
          "name": "_owner",
          "type": "address"
        }
      ],
      "name": "_showTokenID",
      "outputs": [
        {
          "internalType": "uint256",
          "name": "",
          "type": "uint256"
        }
      ],
      "stateMutability": "view",
      "type": "function"
    },
    {
      "inputs": [
        {
          "internalType": "address",
          "name": "",
          "type": "address"
        }
      ],
      "name": "_tokenids",
      "outputs": [
        {
          "internalType": "uint256",
          "name": "",
          "type": "uint256"
        }
      ],
      "stateMutability": "view",
      "type": "function"
    },
    {
      "inputs": [
        {
          "internalType": "address",
          "name": "to",
          "type": "address"
        },
        {
          "internalType": "uint256",
          "name": "tokenId",
          "type": "uint256"
        }
      ],
      "name": "approve",
      "outputs": [],
      "stateMutability": "nonpayable",
      "type": "function"
    },
    {
      "inputs": [
        {
          "internalType": "address",
          "name": "player",
          "type": "address"
        },
        {
          "internalType": "string",
          "name": "tokenURI",
          "type": "string"
        }
      ],
      "name": "awardItem",
      "outputs": [
        {
          "internalType": "uint256",
          "name": "",
          "type": "uint256"
        }
      ],
      "stateMutability": "nonpayable",
      "type": "function"
    },
    {
      "inputs": [
        {
          "internalType": "address",
          "name": "owner",
          "type": "address"
        }
      ],
      "name": "balanceOf",
      "outputs": [
        {
          "internalType": "uint256",
          "name": "",
          "type": "uint256"
        }
      ],
      "stateMutability": "view",
      "type": "function"
    },
    {
      "inputs": [
        {
          "internalType": "uint256",
          "name": "tokenId",
          "type": "uint256"
        }
      ],
      "name": "getApproved",
      "outputs": [
        {
          "internalType": "address",
          "name": "",
          "type": "address"
        }
      ],
      "stateMutability": "view",
      "type": "function"
    },
    {
      "inputs": [
        {
          "internalType": "address",
          "name": "owner",
          "type": "address"
        },
        {
          "internalType": "address",
          "name": "operator",
          "type": "address"
        }
      ],
      "name": "isApprovedForAll",
      "outputs": [
        {
          "internalType": "bool",
          "name": "",
          "type": "bool"
        }
      ],
      "stateMutability": "view",
      "type": "function"
    },
    {
      "inputs": [],
      "name": "name",
      "outputs": [
        {
          "internalType": "string",
          "name": "",
          "type": "string"
        }
      ],
      "stateMutability": "view",
      "type": "function"
    },
    {
      "inputs": [
        {
          "internalType": "uint256",
          "name": "tokenId",
          "type": "uint256"
        }
      ],
      "name": "ownerOf",
      "outputs": [
        {
          "internalType": "address",
          "name": "",
          "type": "address"
        }
      ],
      "stateMutability": "view",
      "type": "function"
    },
    {
      "inputs": [
        {
          "internalType": "address",
          "name": "from",
          "type": "address"
        },
        {
          "internalType": "address",
          "name": "to",
          "type": "address"
        },
        {
          "internalType": "uint256",
          "name": "tokenId",
          "type": "uint256"
        }
      ],
      "name": "safeTransferFrom",
      "outputs": [],
      "stateMutability": "nonpayable",
      "type": "function"
    },
    {
      "inputs": [
        {
          "internalType": "address",
          "name": "from",
          "type": "address"
        },
        {
          "internalType": "address",
          "name": "to",
          "type": "address"
        },
        {
          "internalType": "uint256",
          "name": "tokenId",
          "type": "uint256"
        },
        {
          "internalType": "bytes",
          "name": "data",
          "type": "bytes"
        }
      ],
      "name": "safeTransferFrom",
      "outputs": [],
      "stateMutability": "nonpayable",
      "type": "function"
    },
    {
      "inputs": [
        {
          "internalType": "address",
          "name": "operator",
          "type": "address"
        },
        {
          "internalType": "bool",
          "name": "approved",
          "type": "bool"
        }
      ],
      "name": "setApprovalForAll",
      "outputs": [],
      "stateMutability": "nonpayable",
      "type": "function"
    },
    {
      "inputs": [
        {
          "internalType": "address",
          "name": "_owner",
          "type": "address"
        }
      ],
      "name": "showTokenID",
      "outputs": [
        {
          "internalType": "uint256",
          "name": "",
          "type": "uint256"
        }
      ],
      "stateMutability": "view",
      "type": "function"
    },
    {
      "inputs": [
        {
          "internalType": "bytes4",
          "name": "interfaceId",
          "type": "bytes4"
        }
      ],
      "name": "supportsInterface",
      "outputs": [
        {
          "internalType": "bool",
          "name": "",
          "type": "bool"
        }
      ],
      "stateMutability": "view",
      "type": "function"
    },
    {
      "inputs": [],
      "name": "symbol",
      "outputs": [
        {
          "internalType": "string",
          "name": "",
          "type": "string"
        }
      ],
      "stateMutability": "view",
      "type": "function"
    },
    {
      "inputs": [
        {
          "internalType": "uint256",
          "name": "tokenId",
          "type": "uint256"
        }
      ],
      "name": "tokenURI",
      "outputs": [
        {
          "internalType": "string",
          "name": "",
          "type": "string"
        }
      ],
      "stateMutability": "view",
      "type": "function"
    },
    {
      "inputs": [
        {
          "internalType": "address",
          "name": "from",
          "type": "address"
        },
        {
          "internalType": "address",
          "name": "to",
          "type": "address"
        },
        {
          "internalType": "uint256",
          "name": "tokenId",
          "type": "uint256"
        }
      ],
      "name": "transferFrom",
      "outputs": [],
      "stateMutability": "nonpayable",
      "type": "function"
    }
  ],
  "bytecode": "0x60806040523480156200001157600080fd5b50604080518082018252600881526747616d654974656d60c01b60208083019182528351808501909452600384526249544d60e81b9084015281519192916200005d916000916200007c565b508051620000739060019060208401906200007c565b5050506200015f565b8280546200008a9062000122565b90600052602060002090601f016020900481019282620000ae5760008555620000f9565b82601f10620000c957805160ff1916838001178555620000f9565b82800160010185558215620000f9579182015b82811115620000f9578251825591602001919060010190620000dc565b50620001079291506200010b565b5090565b5b808211156200010757600081556001016200010c565b6002810460018216806200013757607f821691505b602082108114156200015957634e487b7160e01b600052602260045260246000fd5b50919050565b6115de806200016f6000396000f3fe608060405234801561001057600080fd5b506004361061010b5760003560e01c806370a08231116100a2578063b88d4fde11610071578063b88d4fde1461021d578063c87b56dd14610230578063cf37834314610243578063da4bf3cb14610256578063e985e9c5146102695761010b565b806370a08231146101dc57806395d89b41146101ef57806396367804146101f7578063a22cb4651461020a5761010b565b806323b872dd116100de57806323b872dd1461018357806342842e0e146101965780636352211e146101a95780636c437972146101bc5761010b565b806301ffc9a71461011057806306fdde0314610139578063081812fc1461014e578063095ea7b31461016e575b600080fd5b61012361011e3660046110b0565b61027c565b60405161013091906111ac565b60405180910390f35b6101416102c4565b60405161013091906111b7565b61016161015c3660046110e8565b610356565b604051610130919061115b565b61018161017c366004611087565b61037d565b005b610181610191366004610f3a565b6103d4565b6101816101a4366004610f3a565b61040c565b6101616101b73660046110e8565b610427565b6101cf6101ca366004610eee565b61045c565b604051610130919061146e565b6101cf6101ea366004610eee565b610477565b6101416104bb565b6101cf610205366004610eee565b6104ca565b610181610218366004610fee565b6104dc565b61018161022b366004610f75565b6104f2565b61014161023e3660046110e8565b610531565b6101cf610251366004611028565b610636565b6101cf610264366004610eee565b61066a565b610123610277366004610f08565b610675565b60006001600160e01b031982166380ac58cd60e01b14806102ad57506001600160e01b03198216635b5e139f60e01b145b806102bc57506102bc826106a3565b90505b919050565b6060600080546102d3906114e6565b80601f01602080910402602001604051908101604052809291908181526020018280546102ff906114e6565b801561034c5780601f106103215761010080835404028352916020019161034c565b820191906000526020600020905b81548152906001019060200180831161032f57829003601f168201915b5050505050905090565b6000610361826106bc565b506000908152600460205260409020546001600160a01b031690565b600061038882610427565b9050806001600160a01b0316836001600160a01b031614156103c55760405162461bcd60e51b81526004016103bc906113df565b60405180910390fd5b6103cf83836106e4565b505050565b6103e56103df610752565b82610756565b6104015760405162461bcd60e51b81526004016103bc90611420565b6103cf8383836107b4565b6103cf838383604051806020016040528060008152506104f2565b6000818152600260205260408120546001600160a01b0316806102bc5760405162461bcd60e51b81526004016103bc906113a8565b6001600160a01b031660009081526006602052604090205490565b60006001600160a01b03821661049f5760405162461bcd60e51b81526004016103bc906112dc565b506001600160a01b031660009081526003602052604090205490565b6060600180546102d3906114e6565b60066020526000908152604090205481565b6104ee6104e7610752565b83836108e7565b5050565b6105036104fd610752565b83610756565b61051f5760405162461bcd60e51b81526004016103bc90611420565b61052b84848484610958565b50505050565b606061053c826106bc565b60008281526007602052604081208054610555906114e6565b80601f0160208091040260200160405190810160405280929190818152602001828054610581906114e6565b80156105ce5780601f106105a3576101008083540402835291602001916105ce565b820191906000526020600020905b8154815290600101906020018083116105b157829003601f168201915b5050505050905060006105df61098b565b90508051600014156105f3575090506102bf565b81511561062557808260405160200161060d92919061112c565b604051602081830303815290604052925050506102bf565b61062e8461099d565b949350505050565b6000806106436008610a03565b905061064f8482610a07565b6106598184610afd565b6106636008610b41565b9392505050565b60006102bc8261045c565b6001600160a01b03918216600090815260056020908152604080832093909416825291909152205460ff1690565b6001600160e01b031981166301ffc9a760e01b14919050565b6106c581610b4a565b6106e15760405162461bcd60e51b81526004016103bc906113a8565b50565b600081815260046020526040902080546001600160a01b0319166001600160a01b038416908117909155819061071982610427565b6001600160a01b03167f8c5be1e5ebec7d5bd14f71427d1e84f3dd0314c0f7b2291e5b200ac8c7c3b92560405160405180910390a45050565b3390565b60008061076283610427565b9050806001600160a01b0316846001600160a01b0316148061078957506107898185610675565b8061062e5750836001600160a01b03166107a284610356565b6001600160a01b031614949350505050565b826001600160a01b03166107c782610427565b6001600160a01b0316146107ed5760405162461bcd60e51b81526004016103bc9061121c565b6001600160a01b0382166108135760405162461bcd60e51b81526004016103bc90611298565b61081e8383836103cf565b6108296000826106e4565b6001600160a01b03831660009081526003602052604081208054600192906108529084906114a3565b90915550506001600160a01b0382166000908152600360205260408120805460019290610880908490611477565b909155505060008181526002602052604080822080546001600160a01b0319166001600160a01b0386811691821790925591518493918716917fddf252ad1be2c89b69c2b068fc378daa952ba7f163c4a11628f55a4df523b3ef91a46103cf8383836103cf565b6001600160a01b0383811660008181526005602090815260408083209487168084529490915290819020805460ff1916851515179055517f17307eab39ab6107e8899845ad3d59bd9653f200f220920489ca2b5937696c319061094b9085906111ac565b60405180910390a3505050565b6109638484846107b4565b61096f84848484610b67565b61052b5760405162461bcd60e51b81526004016103bc906111ca565b60408051602081019091526000815290565b60606109a8826106bc565b60006109b261098b565b905060008151116109d25760405180602001604052806000815250610663565b806109dc84610c82565b6040516020016109ed92919061112c565b6040516020818303038152906040529392505050565b5490565b6001600160a01b038216610a2d5760405162461bcd60e51b81526004016103bc90611373565b610a3681610b4a565b15610a535760405162461bcd60e51b81526004016103bc90611261565b610a5f600083836103cf565b6001600160a01b0382166000908152600360205260408120805460019290610a88908490611477565b9091555050600081815260026020908152604080832080546001600160a01b0319166001600160a01b0387169081179091558084526006909252808320849055518392907fddf252ad1be2c89b69c2b068fc378daa952ba7f163c4a11628f55a4df523b3ef908290a46104ee600083836103cf565b610b0682610b4a565b610b225760405162461bcd60e51b81526004016103bc90611325565b600082815260076020908152604090912082516103cf92840190610dce565b80546001019055565b6000908152600260205260409020546001600160a01b0316151590565b6000610b7b846001600160a01b0316610d9d565b15610c7757836001600160a01b031663150b7a02610b97610752565b8786866040518563ffffffff1660e01b8152600401610bb9949392919061116f565b602060405180830381600087803b158015610bd357600080fd5b505af1925050508015610c03575060408051601f3d908101601f19168201909252610c00918101906110cc565b60015b610c5d573d808015610c31576040519150601f19603f3d011682016040523d82523d6000602084013e610c36565b606091505b508051610c555760405162461bcd60e51b81526004016103bc906111ca565b805181602001fd5b6001600160e01b031916630a85bd0160e11b14905061062e565b506001949350505050565b606081610ca757506040805180820190915260018152600360fc1b60208201526102bf565b8160005b8115610cd15780610cbb81611521565b9150610cca9050600a8361148f565b9150610cab565b60008167ffffffffffffffff811115610cfa57634e487b7160e01b600052604160045260246000fd5b6040519080825280601f01601f191660200182016040528015610d24576020820181803683370190505b5090505b841561062e57610d396001836114a3565b9150610d46600a8661153c565b610d51906030611477565b60f81b818381518110610d7457634e487b7160e01b600052603260045260246000fd5b60200101906001600160f81b031916908160001a905350610d96600a8661148f565b9450610d28565b600080826001600160a01b0316803b806020016040519081016040528181526000908060200190933c511192915050565b828054610dda906114e6565b90600052602060002090601f016020900481019282610dfc5760008555610e42565b82601f10610e1557805160ff1916838001178555610e42565b82800160010185558215610e42579182015b82811115610e42578251825591602001919060010190610e27565b50610e4e929150610e52565b5090565b5b80821115610e4e5760008155600101610e53565b600067ffffffffffffffff80841115610e8257610e8261157c565b604051601f8501601f191681016020018281118282101715610ea657610ea661157c565b604052848152915081838501861015610ebe57600080fd5b8484602083013760006020868301015250509392505050565b80356001600160a01b03811681146102bf57600080fd5b600060208284031215610eff578081fd5b61066382610ed7565b60008060408385031215610f1a578081fd5b610f2383610ed7565b9150610f3160208401610ed7565b90509250929050565b600080600060608486031215610f4e578081fd5b610f5784610ed7565b9250610f6560208501610ed7565b9150604084013590509250925092565b60008060008060808587031215610f8a578081fd5b610f9385610ed7565b9350610fa160208601610ed7565b925060408501359150606085013567ffffffffffffffff811115610fc3578182fd5b8501601f81018713610fd3578182fd5b610fe287823560208401610e67565b91505092959194509250565b60008060408385031215611000578182fd5b61100983610ed7565b91506020830135801515811461101d578182fd5b809150509250929050565b6000806040838503121561103a578182fd5b61104383610ed7565b9150602083013567ffffffffffffffff81111561105e578182fd5b8301601f8101851361106e578182fd5b61107d85823560208401610e67565b9150509250929050565b60008060408385031215611099578182fd5b6110a283610ed7565b946020939093013593505050565b6000602082840312156110c1578081fd5b813561066381611592565b6000602082840312156110dd578081fd5b815161066381611592565b6000602082840312156110f9578081fd5b5035919050565b600081518084526111188160208601602086016114ba565b601f01601f19169290920160200192915050565b6000835161113e8184602088016114ba565b8351908301906111528183602088016114ba565b01949350505050565b6001600160a01b0391909116815260200190565b6001600160a01b03858116825284166020820152604081018390526080606082018190526000906111a290830184611100565b9695505050505050565b901515815260200190565b6000602082526106636020830184611100565b60208082526032908201527f4552433732313a207472616e7366657220746f206e6f6e20455243373231526560408201527131b2b4bb32b91034b6b83632b6b2b73a32b960711b606082015260800190565b60208082526025908201527f4552433732313a207472616e736665722066726f6d20696e636f72726563742060408201526437bbb732b960d91b606082015260800190565b6020808252601c908201527f4552433732313a20746f6b656e20616c7265616479206d696e74656400000000604082015260600190565b60208082526024908201527f4552433732313a207472616e7366657220746f20746865207a65726f206164646040820152637265737360e01b606082015260800190565b60208082526029908201527f4552433732313a2061646472657373207a65726f206973206e6f7420612076616040820152683634b21037bbb732b960b91b606082015260800190565b6020808252602e908201527f45524337323155524953746f726167653a2055524920736574206f66206e6f6e60408201526d32bc34b9ba32b73a103a37b5b2b760911b606082015260800190565b6020808252818101527f4552433732313a206d696e7420746f20746865207a65726f2061646472657373604082015260600190565b60208082526018908201527f4552433732313a20696e76616c696420746f6b656e2049440000000000000000604082015260600190565b60208082526021908201527f4552433732313a20617070726f76616c20746f2063757272656e74206f776e656040820152603960f91b606082015260800190565b6020808252602e908201527f4552433732313a2063616c6c6572206973206e6f7420746f6b656e206f776e6560408201526d1c881b9bdc88185c1c1c9bdd995960921b606082015260800190565b90815260200190565b6000821982111561148a5761148a611550565b500190565b60008261149e5761149e611566565b500490565b6000828210156114b5576114b5611550565b500390565b60005b838110156114d55781810151838201526020016114bd565b8381111561052b5750506000910152565b6002810460018216806114fa57607f821691505b6020821081141561151b57634e487b7160e01b600052602260045260246000fd5b50919050565b600060001982141561153557611535611550565b5060010190565b60008261154b5761154b611566565b500690565b634e487b7160e01b600052601160045260246000fd5b634e487b7160e01b600052601260045260246000fd5b634e487b7160e01b600052604160045260246000fd5b6001600160e01b0319811681146106e157600080fdfea2646970667358221220f0c5b99edd79de133b14100487eb06ad500be274856546beb82b41cd81c4087864736f6c63430008000033",
  "linkReferences": {},
  "deployedLinkReferences": {}
}